{
  "_format": "hh-sol-artifact-1",
  "contractName": "DataAccessToken",
  "sourceName": "contracts/accessFiles.sol",
  "abi": [
    {
      "inputs": [
        {
          "internalType": "address",
          "name": "initialOwner",
          "type": "address"
        }
      ],
      "stateMutability": "nonpayable",
      "type": "constructor"
    },
    {
      "inputs": [
        {
          "internalType": "address",
          "name": "sender",
          "type": "address"
        },
        {
          "internalType": "uint256",
          "name": "balance",
          "type": "uint256"
        },
        {
          "internalType": "uint256",
          "name": "needed",
          "type": "uint256"
        },
        {
          "internalType": "uint256",
          "name": "tokenId",
          "type": "uint256"
        }
      ],
      "name": "ERC1155InsufficientBalance",
      "type": "error"
    },
    {
      "inputs": [
        {
          "internalType": "address",
          "name": "approver",
          "type": "address"
        }
      ],
      "name": "ERC1155InvalidApprover",
      "type": "error"
    },
    {
      "inputs": [
        {
          "internalType": "uint256",
          "name": "idsLength",
          "type": "uint256"
        },
        {
          "internalType": "uint256",
          "name": "valuesLength",
          "type": "uint256"
        }
      ],
      "name": "ERC1155InvalidArrayLength",
      "type": "error"
    },
    {
      "inputs": [
        {
          "internalType": "address",
          "name": "operator",
          "type": "address"
        }
      ],
      "name": "ERC1155InvalidOperator",
      "type": "error"
    },
    {
      "inputs": [
        {
          "internalType": "address",
          "name": "receiver",
          "type": "address"
        }
      ],
      "name": "ERC1155InvalidReceiver",
      "type": "error"
    },
    {
      "inputs": [
        {
          "internalType": "address",
          "name": "sender",
          "type": "address"
        }
      ],
      "name": "ERC1155InvalidSender",
      "type": "error"
    },
    {
      "inputs": [
        {
          "internalType": "address",
          "name": "operator",
          "type": "address"
        },
        {
          "internalType": "address",
          "name": "owner",
          "type": "address"
        }
      ],
      "name": "ERC1155MissingApprovalForAll",
      "type": "error"
    },
    {
      "inputs": [
        {
          "internalType": "address",
          "name": "owner",
          "type": "address"
        }
      ],
      "name": "OwnableInvalidOwner",
      "type": "error"
    },
    {
      "inputs": [
        {
          "internalType": "address",
          "name": "account",
          "type": "address"
        }
      ],
      "name": "OwnableUnauthorizedAccount",
      "type": "error"
    },
    {
      "anonymous": false,
      "inputs": [
        {
          "indexed": true,
          "internalType": "address",
          "name": "buyer",
          "type": "address"
        },
        {
          "indexed": true,
          "internalType": "uint256",
          "name": "datasetId",
          "type": "uint256"
        },
        {
          "indexed": false,
          "internalType": "uint256",
          "name": "price",
          "type": "uint256"
        }
      ],
      "name": "AccessPurchased",
      "type": "event"
    },
    {
      "anonymous": false,
      "inputs": [
        {
          "indexed": true,
          "internalType": "address",
          "name": "account",
          "type": "address"
        },
        {
          "indexed": true,
          "internalType": "address",
          "name": "operator",
          "type": "address"
        },
        {
          "indexed": false,
          "internalType": "bool",
          "name": "approved",
          "type": "bool"
        }
      ],
      "name": "ApprovalForAll",
      "type": "event"
    },
    {
      "anonymous": false,
      "inputs": [
        {
          "indexed": true,
          "internalType": "uint256",
          "name": "datasetId",
          "type": "uint256"
        },
        {
          "indexed": false,
          "internalType": "string",
          "name": "timestamp",
          "type": "string"
        },
        {
          "indexed": false,
          "internalType": "uint256",
          "name": "price",
          "type": "uint256"
        }
      ],
      "name": "DatasetRegistered",
      "type": "event"
    },
    {
      "anonymous": false,
      "inputs": [
        {
          "indexed": true,
          "internalType": "address",
          "name": "previousOwner",
          "type": "address"
        },
        {
          "indexed": true,
          "internalType": "address",
          "name": "newOwner",
          "type": "address"
        }
      ],
      "name": "OwnershipTransferred",
      "type": "event"
    },
    {
      "anonymous": false,
      "inputs": [
        {
          "indexed": true,
          "internalType": "address",
          "name": "operator",
          "type": "address"
        },
        {
          "indexed": true,
          "internalType": "address",
          "name": "from",
          "type": "address"
        },
        {
          "indexed": true,
          "internalType": "address",
          "name": "to",
          "type": "address"
        },
        {
          "indexed": false,
          "internalType": "uint256[]",
          "name": "ids",
          "type": "uint256[]"
        },
        {
          "indexed": false,
          "internalType": "uint256[]",
          "name": "values",
          "type": "uint256[]"
        }
      ],
      "name": "TransferBatch",
      "type": "event"
    },
    {
      "anonymous": false,
      "inputs": [
        {
          "indexed": true,
          "internalType": "address",
          "name": "operator",
          "type": "address"
        },
        {
          "indexed": true,
          "internalType": "address",
          "name": "from",
          "type": "address"
        },
        {
          "indexed": true,
          "internalType": "address",
          "name": "to",
          "type": "address"
        },
        {
          "indexed": false,
          "internalType": "uint256",
          "name": "id",
          "type": "uint256"
        },
        {
          "indexed": false,
          "internalType": "uint256",
          "name": "value",
          "type": "uint256"
        }
      ],
      "name": "TransferSingle",
      "type": "event"
    },
    {
      "anonymous": false,
      "inputs": [
        {
          "indexed": false,
          "internalType": "string",
          "name": "value",
          "type": "string"
        },
        {
          "indexed": true,
          "internalType": "uint256",
          "name": "id",
          "type": "uint256"
        }
      ],
      "name": "URI",
      "type": "event"
    },
    {
      "inputs": [
        {
          "internalType": "address",
          "name": "account",
          "type": "address"
        },
        {
          "internalType": "uint256",
          "name": "id",
          "type": "uint256"
        }
      ],
      "name": "balanceOf",
      "outputs": [
        {
          "internalType": "uint256",
          "name": "",
          "type": "uint256"
        }
      ],
      "stateMutability": "view",
      "type": "function"
    },
    {
      "inputs": [
        {
          "internalType": "address[]",
          "name": "accounts",
          "type": "address[]"
        },
        {
          "internalType": "uint256[]",
          "name": "ids",
          "type": "uint256[]"
        }
      ],
      "name": "balanceOfBatch",
      "outputs": [
        {
          "internalType": "uint256[]",
          "name": "",
          "type": "uint256[]"
        }
      ],
      "stateMutability": "view",
      "type": "function"
    },
    {
      "inputs": [
        {
          "internalType": "uint256",
          "name": "",
          "type": "uint256"
        }
      ],
      "name": "datasetPrices",
      "outputs": [
        {
          "internalType": "uint256",
          "name": "",
          "type": "uint256"
        }
      ],
      "stateMutability": "view",
      "type": "function"
    },
    {
      "inputs": [
        {
          "internalType": "uint256",
          "name": "",
          "type": "uint256"
        }
      ],
      "name": "datasetTimestamps",
      "outputs": [
        {
          "internalType": "string",
          "name": "",
          "type": "string"
        }
      ],
      "stateMutability": "view",
      "type": "function"
    },
    {
      "inputs": [
        {
          "internalType": "uint256",
          "name": "id",
          "type": "uint256"
        }
      ],
      "name": "exists",
      "outputs": [
        {
          "internalType": "bool",
          "name": "",
          "type": "bool"
        }
      ],
      "stateMutability": "view",
      "type": "function"
    },
    {
      "inputs": [
        {
          "internalType": "uint256",
          "name": "datasetId",
          "type": "uint256"
        }
      ],
      "name": "getDatasetTimestamp",
      "outputs": [
        {
          "internalType": "string",
          "name": "",
          "type": "string"
        }
      ],
      "stateMutability": "view",
      "type": "function"
    },
    {
      "inputs": [
        {
          "internalType": "address",
          "name": "account",
          "type": "address"
        },
        {
          "internalType": "uint256",
          "name": "datasetId",
          "type": "uint256"
        }
      ],
      "name": "hasAccess",
      "outputs": [
        {
          "internalType": "bool",
          "name": "",
          "type": "bool"
        }
      ],
      "stateMutability": "view",
      "type": "function"
    },
    {
      "inputs": [
        {
          "internalType": "address",
          "name": "account",
          "type": "address"
        },
        {
          "internalType": "address",
          "name": "operator",
          "type": "address"
        }
      ],
      "name": "isApprovedForAll",
      "outputs": [
        {
          "internalType": "bool",
          "name": "",
          "type": "bool"
        }
      ],
      "stateMutability": "view",
      "type": "function"
    },
    {
      "inputs": [],
      "name": "owner",
      "outputs": [
        {
          "internalType": "address",
          "name": "",
          "type": "address"
        }
      ],
      "stateMutability": "view",
      "type": "function"
    },
    {
      "inputs": [
        {
          "internalType": "uint256",
          "name": "datasetId",
          "type": "uint256"
        }
      ],
      "name": "purchaseAccess",
      "outputs": [],
      "stateMutability": "payable",
      "type": "function"
    },
    {
      "inputs": [
        {
          "internalType": "uint256",
          "name": "datasetId",
          "type": "uint256"
        },
        {
          "internalType": "string",
          "name": "timestamp",
          "type": "string"
        },
        {
          "internalType": "uint256",
          "name": "price",
          "type": "uint256"
        }
      ],
      "name": "registerDataset",
      "outputs": [],
      "stateMutability": "nonpayable",
      "type": "function"
    },
    {
      "inputs": [],
      "name": "renounceOwnership",
      "outputs": [],
      "stateMutability": "nonpayable",
      "type": "function"
    },
    {
      "inputs": [
        {
          "internalType": "address",
          "name": "from",
          "type": "address"
        },
        {
          "internalType": "address",
          "name": "to",
          "type": "address"
        },
        {
          "internalType": "uint256[]",
          "name": "ids",
          "type": "uint256[]"
        },
        {
          "internalType": "uint256[]",
          "name": "values",
          "type": "uint256[]"
        },
        {
          "internalType": "bytes",
          "name": "data",
          "type": "bytes"
        }
      ],
      "name": "safeBatchTransferFrom",
      "outputs": [],
      "stateMutability": "nonpayable",
      "type": "function"
    },
    {
      "inputs": [
        {
          "internalType": "address",
          "name": "from",
          "type": "address"
        },
        {
          "internalType": "address",
          "name": "to",
          "type": "address"
        },
        {
          "internalType": "uint256",
          "name": "id",
          "type": "uint256"
        },
        {
          "internalType": "uint256",
          "name": "value",
          "type": "uint256"
        },
        {
          "internalType": "bytes",
          "name": "data",
          "type": "bytes"
        }
      ],
      "name": "safeTransferFrom",
      "outputs": [],
      "stateMutability": "nonpayable",
      "type": "function"
    },
    {
      "inputs": [
        {
          "internalType": "address",
          "name": "operator",
          "type": "address"
        },
        {
          "internalType": "bool",
          "name": "approved",
          "type": "bool"
        }
      ],
      "name": "setApprovalForAll",
      "outputs": [],
      "stateMutability": "nonpayable",
      "type": "function"
    },
    {
      "inputs": [
        {
          "internalType": "string",
          "name": "newBaseURI",
          "type": "string"
        }
      ],
      "name": "setBaseURI",
      "outputs": [],
      "stateMutability": "nonpayable",
      "type": "function"
    },
    {
      "inputs": [
        {
          "internalType": "bytes4",
          "name": "interfaceId",
          "type": "bytes4"
        }
      ],
      "name": "supportsInterface",
      "outputs": [
        {
          "internalType": "bool",
          "name": "",
          "type": "bool"
        }
      ],
      "stateMutability": "view",
      "type": "function"
    },
    {
      "inputs": [],
      "name": "totalSupply",
      "outputs": [
        {
          "internalType": "uint256",
          "name": "",
          "type": "uint256"
        }
      ],
      "stateMutability": "view",
      "type": "function"
    },
    {
      "inputs": [
        {
          "internalType": "uint256",
          "name": "id",
          "type": "uint256"
        }
      ],
      "name": "totalSupply",
      "outputs": [
        {
          "internalType": "uint256",
          "name": "",
          "type": "uint256"
        }
      ],
      "stateMutability": "view",
      "type": "function"
    },
    {
      "inputs": [
        {
          "internalType": "address",
          "name": "newOwner",
          "type": "address"
        }
      ],
      "name": "transferOwnership",
      "outputs": [],
      "stateMutability": "nonpayable",
      "type": "function"
    },
    {
      "inputs": [
        {
          "internalType": "uint256",
          "name": "id",
          "type": "uint256"
        }
      ],
      "name": "uri",
      "outputs": [
        {
          "internalType": "string",
          "name": "",
          "type": "string"
        }
      ],
      "stateMutability": "view",
      "type": "function"
    },
    {
      "inputs": [],
      "name": "withdraw",
      "outputs": [],
      "stateMutability": "nonpayable",
      "type": "function"
    }
  ],
  "bytecode": "0x608060405234801561001057600080fd5b50604051613a27380380613a2783398181016040528101906100329190610236565b8060405180602001604052806000815250610052816100fa60201b60201c565b50600073ffffffffffffffffffffffffffffffffffffffff168173ffffffffffffffffffffffffffffffffffffffff16036100c55760006040517f1e4fbdf70000000000000000000000000000000000000000000000000000000081526004016100bc9190610272565b60405180910390fd5b6100d48161010d60201b60201c565b5060405180602001604052806000815250600690816100f391906104dd565b50506105af565b806002908161010991906104dd565b5050565b6000600360009054906101000a900473ffffffffffffffffffffffffffffffffffffffff16905081600360006101000a81548173ffffffffffffffffffffffffffffffffffffffff021916908373ffffffffffffffffffffffffffffffffffffffff1602179055508173ffffffffffffffffffffffffffffffffffffffff168173ffffffffffffffffffffffffffffffffffffffff167f8be0079c531659141344cd1fd0a4f28419497f9722a3daafe3b4186f6b6457e060405160405180910390a35050565b600080fd5b600073ffffffffffffffffffffffffffffffffffffffff82169050919050565b6000610203826101d8565b9050919050565b610213816101f8565b811461021e57600080fd5b50565b6000815190506102308161020a565b92915050565b60006020828403121561024c5761024b6101d3565b5b600061025a84828501610221565b91505092915050565b61026c816101f8565b82525050565b60006020820190506102876000830184610263565b92915050565b600081519050919050565b7f4e487b7100000000000000000000000000000000000000000000000000000000600052604160045260246000fd5b7f4e487b7100000000000000000000000000000000000000000000000000000000600052602260045260246000fd5b6000600282049050600182168061030e57607f821691505b602082108103610321576103206102c7565b5b50919050565b60008190508160005260206000209050919050565b60006020601f8301049050919050565b600082821b905092915050565b6000600883026103897fffffffffffffffffffffffffffffffffffffffffffffffffffffffffffffffff8261034c565b610393868361034c565b95508019841693508086168417925050509392505050565b6000819050919050565b6000819050919050565b60006103da6103d56103d0846103ab565b6103b5565b6103ab565b9050919050565b6000819050919050565b6103f4836103bf565b610408610400826103e1565b848454610359565b825550505050565b600090565b61041d610410565b6104288184846103eb565b505050565b5b8181101561044c57610441600082610415565b60018101905061042e565b5050565b601f8211156104915761046281610327565b61046b8461033c565b8101602085101561047a578190505b61048e6104868561033c565b83018261042d565b50505b505050565b600082821c905092915050565b60006104b460001984600802610496565b1980831691505092915050565b60006104cd83836104a3565b9150826002028217905092915050565b6104e68261028d565b67ffffffffffffffff8111156104ff576104fe610298565b5b61050982546102f6565b610514828285610450565b600060209050601f8311600181146105475760008415610535578287015190505b61053f85826104c1565b8655506105a7565b601f19841661055586610327565b60005b8281101561057d57848901518255600182019150602085019450602081019050610558565b8683101561059a5784890151610596601f8916826104a3565b8355505b6001600288020188555050505b505050505050565b613469806105be6000396000f3fe6080604052600436106101345760003560e01c80638da5cb5b116100ab578063bd85b0391161006f578063bd85b03914610428578063c6530e4114610465578063da3317d1146104a2578063e985e9c5146104df578063f242432a1461051c578063f2fde38b1461054557610134565b80638da5cb5b1461033e5780639fae599614610369578063a22cb465146103a6578063b91d0a2f146103cf578063bc8696e1146103eb57610134565b80633ccfd60b116100fd5780633ccfd60b146102445780633f93a79a1461025b5780634e1273f4146102845780634f558e79146102c157806355f804b3146102fe578063715018a61461032757610134565b8062fdd58e1461013957806301ffc9a7146101765780630e89341c146101b357806318160ddd146101f05780632eb2c2d61461021b575b600080fd5b34801561014557600080fd5b50610160600480360381019061015b9190612198565b61056e565b60405161016d91906121e7565b60405180910390f35b34801561018257600080fd5b5061019d6004803603810190610198919061225a565b6105c8565b6040516101aa91906122a2565b60405180910390f35b3480156101bf57600080fd5b506101da60048036038101906101d591906122bd565b6106aa565b6040516101e7919061237a565b60405180910390f35b3480156101fc57600080fd5b506102056106de565b60405161021291906121e7565b60405180910390f35b34801561022757600080fd5b50610242600480360381019061023d9190612599565b6106e8565b005b34801561025057600080fd5b50610259610790565b005b34801561026757600080fd5b50610282600480360381019061027d9190612709565b610831565b005b34801561029057600080fd5b506102ab60048036038101906102a6919061283b565b610907565b6040516102b89190612971565b60405180910390f35b3480156102cd57600080fd5b506102e860048036038101906102e391906122bd565b610a10565b6040516102f591906122a2565b60405180910390f35b34801561030a57600080fd5b5061032560048036038101906103209190612993565b610a24565b005b34801561033357600080fd5b5061033c610a3f565b005b34801561034a57600080fd5b50610353610a53565b60405161036091906129eb565b60405180910390f35b34801561037557600080fd5b50610390600480360381019061038b91906122bd565b610a7d565b60405161039d919061237a565b60405180910390f35b3480156103b257600080fd5b506103cd60048036038101906103c89190612a32565b610b1d565b005b6103e960048036038101906103e491906122bd565b610b33565b005b3480156103f757600080fd5b50610412600480360381019061040d91906122bd565b610c9b565b60405161041f91906121e7565b60405180910390f35b34801561043457600080fd5b5061044f600480360381019061044a91906122bd565b610cb3565b60405161045c91906121e7565b60405180910390f35b34801561047157600080fd5b5061048c60048036038101906104879190612198565b610cd0565b60405161049991906122a2565b60405180910390f35b3480156104ae57600080fd5b506104c960048036038101906104c491906122bd565b610ce6565b6040516104d6919061237a565b60405180910390f35b3480156104eb57600080fd5b5061050660048036038101906105019190612a72565b610d8b565b60405161051391906122a2565b60405180910390f35b34801561052857600080fd5b50610543600480360381019061053e9190612ab2565b610e1f565b005b34801561055157600080fd5b5061056c60048036038101906105679190612b49565b610ec7565b005b600080600083815260200190815260200160002060008473ffffffffffffffffffffffffffffffffffffffff1673ffffffffffffffffffffffffffffffffffffffff16815260200190815260200160002054905092915050565b60007fd9b67a26000000000000000000000000000000000000000000000000000000007bffffffffffffffffffffffffffffffffffffffffffffffffffffffff1916827bffffffffffffffffffffffffffffffffffffffffffffffffffffffff1916148061069357507f0e89341c000000000000000000000000000000000000000000000000000000007bffffffffffffffffffffffffffffffffffffffffffffffffffffffff1916827bffffffffffffffffffffffffffffffffffffffffffffffffffffffff1916145b806106a357506106a282610f4d565b5b9050919050565b606060066106b783610fb7565b6040516020016106c8929190612caa565b6040516020818303038152906040529050919050565b6000600554905090565b60006106f2611085565b90508073ffffffffffffffffffffffffffffffffffffffff168673ffffffffffffffffffffffffffffffffffffffff161415801561073757506107358682610d8b565b155b1561077b5780866040517fe237d922000000000000000000000000000000000000000000000000000000008152600401610772929190612cce565b60405180910390fd5b610788868686868661108d565b505050505050565b610798611185565b6000479050600081116107e0576040517f08c379a00000000000000000000000000000000000000000000000000000000081526004016107d790612d43565b60405180910390fd5b6107e8610a53565b73ffffffffffffffffffffffffffffffffffffffff166108fc829081150290604051600060405180830381858888f1935050505015801561082d573d6000803e3d6000fd5b5050565b610839611185565b600060076000858152602001908152602001600020541461088f576040517f08c379a000000000000000000000000000000000000000000000000000000000815260040161088690612daf565b60405180910390fd5b806007600085815260200190815260200160002081905550816008600085815260200190815260200160002090816108c79190612f66565b50827fa24cd12f5501ed19c3f895d051a73257b843bf8fc83a456f1c41e7e0358d6df083836040516108fa929190613038565b60405180910390a2505050565b6060815183511461095357815183516040517f5b05999100000000000000000000000000000000000000000000000000000000815260040161094a929190613068565b60405180910390fd5b6000835167ffffffffffffffff8111156109705761096f6123a1565b5b60405190808252806020026020018201604052801561099e5781602001602082028036833780820191505090505b50905060005b8451811015610a05576109db6109c3828761120c90919063ffffffff16565b6109d6838761122090919063ffffffff16565b61056e565b8282815181106109ee576109ed613091565b5b6020026020010181815250508060010190506109a4565b508091505092915050565b600080610a1c83610cb3565b119050919050565b610a2c611185565b8060069081610a3b9190612f66565b5050565b610a47611185565b610a516000611234565b565b6000600360009054906101000a900473ffffffffffffffffffffffffffffffffffffffff16905090565b60086020528060005260406000206000915090508054610a9c90612ba5565b80601f0160208091040260200160405190810160405280929190818152602001828054610ac890612ba5565b8015610b155780601f10610aea57610100808354040283529160200191610b15565b820191906000526020600020905b815481529060010190602001808311610af857829003601f168201915b505050505081565b610b2f610b28611085565b83836112fa565b5050565b60006007600083815260200190815260200160002054905060008111610b8e576040517f08c379a0000000000000000000000000000000000000000000000000000000008152600401610b859061310c565b60405180910390fd5b80341015610bd1576040517f08c379a0000000000000000000000000000000000000000000000000000000008152600401610bc890613178565b60405180910390fd5b610bed338360016040518060200160405280600081525061146a565b813373ffffffffffffffffffffffffffffffffffffffff167f2f60a1b621accecc3d569c39cabeb0d50d01ebd273e052479f9f539c6abeaa7383604051610c3491906121e7565b60405180910390a380341115610c97573373ffffffffffffffffffffffffffffffffffffffff166108fc8234610c6a91906131c7565b9081150290604051600060405180830381858888f19350505050158015610c95573d6000803e3d6000fd5b505b5050565b60076020528060005260406000206000915090505481565b600060046000838152602001908152602001600020549050919050565b600080610cdd848461056e565b11905092915050565b6060600860008381526020019081526020016000208054610d0690612ba5565b80601f0160208091040260200160405190810160405280929190818152602001828054610d3290612ba5565b8015610d7f5780601f10610d5457610100808354040283529160200191610d7f565b820191906000526020600020905b815481529060010190602001808311610d6257829003601f168201915b50505050509050919050565b6000600160008473ffffffffffffffffffffffffffffffffffffffff1673ffffffffffffffffffffffffffffffffffffffff16815260200190815260200160002060008373ffffffffffffffffffffffffffffffffffffffff1673ffffffffffffffffffffffffffffffffffffffff16815260200190815260200160002060009054906101000a900460ff16905092915050565b6000610e29611085565b90508073ffffffffffffffffffffffffffffffffffffffff168673ffffffffffffffffffffffffffffffffffffffff1614158015610e6e5750610e6c8682610d8b565b155b15610eb25780866040517fe237d922000000000000000000000000000000000000000000000000000000008152600401610ea9929190612cce565b60405180910390fd5b610ebf8686868686611503565b505050505050565b610ecf611185565b600073ffffffffffffffffffffffffffffffffffffffff168173ffffffffffffffffffffffffffffffffffffffff1603610f415760006040517f1e4fbdf7000000000000000000000000000000000000000000000000000000008152600401610f3891906129eb565b60405180910390fd5b610f4a81611234565b50565b60007f01ffc9a7000000000000000000000000000000000000000000000000000000007bffffffffffffffffffffffffffffffffffffffffffffffffffffffff1916827bffffffffffffffffffffffffffffffffffffffffffffffffffffffff1916149050919050565b606060006001610fc68461160e565b01905060008167ffffffffffffffff811115610fe557610fe46123a1565b5b6040519080825280601f01601f1916602001820160405280156110175781602001600182028036833780820191505090505b509050600082602001820190505b60011561107a578080600190039150507f3031323334353637383961626364656600000000000000000000000000000000600a86061a8153600a858161106e5761106d6131fb565b5b04945060008503611025575b819350505050919050565b600033905090565b600073ffffffffffffffffffffffffffffffffffffffff168473ffffffffffffffffffffffffffffffffffffffff16036110ff5760006040517f57f447ce0000000000000000000000000000000000000000000000000000000081526004016110f691906129eb565b60405180910390fd5b600073ffffffffffffffffffffffffffffffffffffffff168573ffffffffffffffffffffffffffffffffffffffff16036111715760006040517f01a8351400000000000000000000000000000000000000000000000000000000815260040161116891906129eb565b60405180910390fd5b61117e8585858585611761565b5050505050565b61118d611085565b73ffffffffffffffffffffffffffffffffffffffff166111ab610a53565b73ffffffffffffffffffffffffffffffffffffffff161461120a576111ce611085565b6040517f118cdaa700000000000000000000000000000000000000000000000000000000815260040161120191906129eb565b60405180910390fd5b565b600060208202602084010151905092915050565b600060208202602084010151905092915050565b6000600360009054906101000a900473ffffffffffffffffffffffffffffffffffffffff16905081600360006101000a81548173ffffffffffffffffffffffffffffffffffffffff021916908373ffffffffffffffffffffffffffffffffffffffff1602179055508173ffffffffffffffffffffffffffffffffffffffff168173ffffffffffffffffffffffffffffffffffffffff167f8be0079c531659141344cd1fd0a4f28419497f9722a3daafe3b4186f6b6457e060405160405180910390a35050565b600073ffffffffffffffffffffffffffffffffffffffff168273ffffffffffffffffffffffffffffffffffffffff160361136c5760006040517fced3e10000000000000000000000000000000000000000000000000000000000815260040161136391906129eb565b60405180910390fd5b80600160008573ffffffffffffffffffffffffffffffffffffffff1673ffffffffffffffffffffffffffffffffffffffff16815260200190815260200160002060008473ffffffffffffffffffffffffffffffffffffffff1673ffffffffffffffffffffffffffffffffffffffff16815260200190815260200160002060006101000a81548160ff0219169083151502179055508173ffffffffffffffffffffffffffffffffffffffff168373ffffffffffffffffffffffffffffffffffffffff167f17307eab39ab6107e8899845ad3d59bd9653f200f220920489ca2b5937696c318360405161145d91906122a2565b60405180910390a3505050565b600073ffffffffffffffffffffffffffffffffffffffff168473ffffffffffffffffffffffffffffffffffffffff16036114dc5760006040517f57f447ce0000000000000000000000000000000000000000000000000000000081526004016114d391906129eb565b60405180910390fd5b6000806114e98585611813565b915091506114fb600087848487611761565b505050505050565b600073ffffffffffffffffffffffffffffffffffffffff168473ffffffffffffffffffffffffffffffffffffffff16036115755760006040517f57f447ce00000000000000000000000000000000000000000000000000000000815260040161156c91906129eb565b60405180910390fd5b600073ffffffffffffffffffffffffffffffffffffffff168573ffffffffffffffffffffffffffffffffffffffff16036115e75760006040517f01a835140000000000000000000000000000000000000000000000000000000081526004016115de91906129eb565b60405180910390fd5b6000806115f48585611813565b915091506116058787848487611761565b50505050505050565b600080600090507a184f03e93ff9f4daa797ed6e38ed64bf6a1f010000000000000000831061166c577a184f03e93ff9f4daa797ed6e38ed64bf6a1f0100000000000000008381611662576116616131fb565b5b0492506040810190505b6d04ee2d6d415b85acef810000000083106116a9576d04ee2d6d415b85acef8100000000838161169f5761169e6131fb565b5b0492506020810190505b662386f26fc1000083106116d857662386f26fc1000083816116ce576116cd6131fb565b5b0492506010810190505b6305f5e1008310611701576305f5e10083816116f7576116f66131fb565b5b0492506008810190505b612710831061172657612710838161171c5761171b6131fb565b5b0492506004810190505b60648310611749576064838161173f5761173e6131fb565b5b0492506002810190505b600a8310611758576001810190505b80915050919050565b61176d85858585611843565b600073ffffffffffffffffffffffffffffffffffffffff168473ffffffffffffffffffffffffffffffffffffffff161461180c5760006117ab611085565b905060018451036117fb5760006117cc60008661122090919063ffffffff16565b905060006117e460008661122090919063ffffffff16565b90506117f4838989858589611855565b505061180a565b611809818787878787611a09565b5b505b5050505050565b60608060405191506001825283602083015260408201905060018152826020820152604081016040529250929050565b61184f84848484611bbd565b50505050565b60008473ffffffffffffffffffffffffffffffffffffffff163b1115611a01578373ffffffffffffffffffffffffffffffffffffffff1663f23a6e6187878686866040518663ffffffff1660e01b81526004016118b695949392919061327f565b6020604051808303816000875af19250505080156118f257506040513d601f19601f820116820180604052508101906118ef91906132ee565b60015b611976573d8060008114611922576040519150601f19603f3d011682016040523d82523d6000602084013e611927565b606091505b50600081510361196e57846040517f57f447ce00000000000000000000000000000000000000000000000000000000815260040161196591906129eb565b60405180910390fd5b805181602001fd5b63f23a6e6160e01b7bffffffffffffffffffffffffffffffffffffffffffffffffffffffff1916817bffffffffffffffffffffffffffffffffffffffffffffffffffffffff1916146119ff57846040517f57f447ce0000000000000000000000000000000000000000000000000000000081526004016119f691906129eb565b60405180910390fd5b505b505050505050565b60008473ffffffffffffffffffffffffffffffffffffffff163b1115611bb5578373ffffffffffffffffffffffffffffffffffffffff1663bc197c8187878686866040518663ffffffff1660e01b8152600401611a6a95949392919061331b565b6020604051808303816000875af1925050508015611aa657506040513d601f19601f82011682018060405250810190611aa391906132ee565b60015b611b2a573d8060008114611ad6576040519150601f19603f3d011682016040523d82523d6000602084013e611adb565b606091505b506000815103611b2257846040517f57f447ce000000000000000000000000000000000000000000000000000000008152600401611b1991906129eb565b60405180910390fd5b805181602001fd5b63bc197c8160e01b7bffffffffffffffffffffffffffffffffffffffffffffffffffffffff1916817bffffffffffffffffffffffffffffffffffffffffffffffffffffffff191614611bb357846040517f57f447ce000000000000000000000000000000000000000000000000000000008152600401611baa91906129eb565b60405180910390fd5b505b505050505050565b611bc984848484611d48565b600073ffffffffffffffffffffffffffffffffffffffff168473ffffffffffffffffffffffffffffffffffffffff1603611c93576000805b8351811015611c77576000611c1f828561122090919063ffffffff16565b90508060046000611c39858961122090919063ffffffff16565b81526020019081526020016000206000828254611c569190613383565b925050819055508083611c699190613383565b925050806001019050611c01565b508060056000828254611c8a9190613383565b92505081905550505b600073ffffffffffffffffffffffffffffffffffffffff168373ffffffffffffffffffffffffffffffffffffffff1603611d42576000805b8351811015611d2f576000611ce9828561122090919063ffffffff16565b90508060046000611d03858961122090919063ffffffff16565b815260200190815260200160002060008282540392505081905550808301925050806001019050611ccb565b5080600560008282540392505081905550505b50505050565b8051825114611d9257815181516040517f5b059991000000000000000000000000000000000000000000000000000000008152600401611d89929190613068565b60405180910390fd5b6000611d9c611085565b905060005b8351811015611fab576000611dbf828661122090919063ffffffff16565b90506000611dd6838661122090919063ffffffff16565b9050600073ffffffffffffffffffffffffffffffffffffffff168873ffffffffffffffffffffffffffffffffffffffff1614611f0357600080600084815260200190815260200160002060008a73ffffffffffffffffffffffffffffffffffffffff1673ffffffffffffffffffffffffffffffffffffffff16815260200190815260200160002054905081811015611eab57888183856040517f03dee4c5000000000000000000000000000000000000000000000000000000008152600401611ea294939291906133b7565b60405180910390fd5b81810360008085815260200190815260200160002060008b73ffffffffffffffffffffffffffffffffffffffff1673ffffffffffffffffffffffffffffffffffffffff16815260200190815260200160002081905550505b600073ffffffffffffffffffffffffffffffffffffffff168773ffffffffffffffffffffffffffffffffffffffff1614611f9e578060008084815260200190815260200160002060008973ffffffffffffffffffffffffffffffffffffffff1673ffffffffffffffffffffffffffffffffffffffff1681526020019081526020016000206000828254611f969190613383565b925050819055505b5050806001019050611da1565b50600183510361206a576000611fcb60008561122090919063ffffffff16565b90506000611fe360008561122090919063ffffffff16565b90508573ffffffffffffffffffffffffffffffffffffffff168773ffffffffffffffffffffffffffffffffffffffff168473ffffffffffffffffffffffffffffffffffffffff167fc3d58168c5ae7397731d063d5bbf3d657854427343f4c083240f7aacaa2d0f62858560405161205b929190613068565b60405180910390a450506120e9565b8373ffffffffffffffffffffffffffffffffffffffff168573ffffffffffffffffffffffffffffffffffffffff168273ffffffffffffffffffffffffffffffffffffffff167f4a39dc06d4c0dbc64b70af90fd698a233a518aa5d07e595d983b8c0526c8f7fb86866040516120e09291906133fc565b60405180910390a45b5050505050565b6000604051905090565b600080fd5b600080fd5b600073ffffffffffffffffffffffffffffffffffffffff82169050919050565b600061212f82612104565b9050919050565b61213f81612124565b811461214a57600080fd5b50565b60008135905061215c81612136565b92915050565b6000819050919050565b61217581612162565b811461218057600080fd5b50565b6000813590506121928161216c565b92915050565b600080604083850312156121af576121ae6120fa565b5b60006121bd8582860161214d565b92505060206121ce85828601612183565b9150509250929050565b6121e181612162565b82525050565b60006020820190506121fc60008301846121d8565b92915050565b60007fffffffff0000000000000000000000000000000000000000000000000000000082169050919050565b61223781612202565b811461224257600080fd5b50565b6000813590506122548161222e565b92915050565b6000602082840312156122705761226f6120fa565b5b600061227e84828501612245565b91505092915050565b60008115159050919050565b61229c81612287565b82525050565b60006020820190506122b76000830184612293565b92915050565b6000602082840312156122d3576122d26120fa565b5b60006122e184828501612183565b91505092915050565b600081519050919050565b600082825260208201905092915050565b60005b83811015612324578082015181840152602081019050612309565b60008484015250505050565b6000601f19601f8301169050919050565b600061234c826122ea565b61235681856122f5565b9350612366818560208601612306565b61236f81612330565b840191505092915050565b600060208201905081810360008301526123948184612341565b905092915050565b600080fd5b7f4e487b7100000000000000000000000000000000000000000000000000000000600052604160045260246000fd5b6123d982612330565b810181811067ffffffffffffffff821117156123f8576123f76123a1565b5b80604052505050565b600061240b6120f0565b905061241782826123d0565b919050565b600067ffffffffffffffff821115612437576124366123a1565b5b602082029050602081019050919050565b600080fd5b600061246061245b8461241c565b612401565b9050808382526020820190506020840283018581111561248357612482612448565b5b835b818110156124ac57806124988882612183565b845260208401935050602081019050612485565b5050509392505050565b600082601f8301126124cb576124ca61239c565b5b81356124db84826020860161244d565b91505092915050565b600080fd5b600067ffffffffffffffff821115612504576125036123a1565b5b61250d82612330565b9050602081019050919050565b82818337600083830152505050565b600061253c612537846124e9565b612401565b905082815260208101848484011115612558576125576124e4565b5b61256384828561251a565b509392505050565b600082601f8301126125805761257f61239c565b5b8135612590848260208601612529565b91505092915050565b600080600080600060a086880312156125b5576125b46120fa565b5b60006125c38882890161214d565b95505060206125d48882890161214d565b945050604086013567ffffffffffffffff8111156125f5576125f46120ff565b5b612601888289016124b6565b935050606086013567ffffffffffffffff811115612622576126216120ff565b5b61262e888289016124b6565b925050608086013567ffffffffffffffff81111561264f5761264e6120ff565b5b61265b8882890161256b565b9150509295509295909350565b600067ffffffffffffffff821115612683576126826123a1565b5b61268c82612330565b9050602081019050919050565b60006126ac6126a784612668565b612401565b9050828152602081018484840111156126c8576126c76124e4565b5b6126d384828561251a565b509392505050565b600082601f8301126126f0576126ef61239c565b5b8135612700848260208601612699565b91505092915050565b600080600060608486031215612722576127216120fa565b5b600061273086828701612183565b935050602084013567ffffffffffffffff811115612751576127506120ff565b5b61275d868287016126db565b925050604061276e86828701612183565b9150509250925092565b600067ffffffffffffffff821115612793576127926123a1565b5b602082029050602081019050919050565b60006127b76127b284612778565b612401565b905080838252602082019050602084028301858111156127da576127d9612448565b5b835b8181101561280357806127ef888261214d565b8452602084019350506020810190506127dc565b5050509392505050565b600082601f8301126128225761282161239c565b5b81356128328482602086016127a4565b91505092915050565b60008060408385031215612852576128516120fa565b5b600083013567ffffffffffffffff8111156128705761286f6120ff565b5b61287c8582860161280d565b925050602083013567ffffffffffffffff81111561289d5761289c6120ff565b5b6128a9858286016124b6565b9150509250929050565b600081519050919050565b600082825260208201905092915050565b6000819050602082019050919050565b6128e881612162565b82525050565b60006128fa83836128df565b60208301905092915050565b6000602082019050919050565b600061291e826128b3565b61292881856128be565b9350612933836128cf565b8060005b8381101561296457815161294b88826128ee565b975061295683612906565b925050600181019050612937565b5085935050505092915050565b6000602082019050818103600083015261298b8184612913565b905092915050565b6000602082840312156129a9576129a86120fa565b5b600082013567ffffffffffffffff8111156129c7576129c66120ff565b5b6129d3848285016126db565b91505092915050565b6129e581612124565b82525050565b6000602082019050612a0060008301846129dc565b92915050565b612a0f81612287565b8114612a1a57600080fd5b50565b600081359050612a2c81612a06565b92915050565b60008060408385031215612a4957612a486120fa565b5b6000612a578582860161214d565b9250506020612a6885828601612a1d565b9150509250929050565b60008060408385031215612a8957612a886120fa565b5b6000612a978582860161214d565b9250506020612aa88582860161214d565b9150509250929050565b600080600080600060a08688031215612ace57612acd6120fa565b5b6000612adc8882890161214d565b9550506020612aed8882890161214d565b9450506040612afe88828901612183565b9350506060612b0f88828901612183565b925050608086013567ffffffffffffffff811115612b3057612b2f6120ff565b5b612b3c8882890161256b565b9150509295509295909350565b600060208284031215612b5f57612b5e6120fa565b5b6000612b6d8482850161214d565b91505092915050565b7f4e487b7100000000000000000000000000000000000000000000000000000000600052602260045260246000fd5b60006002820490506001821680612bbd57607f821691505b602082108103612bd057612bcf612b76565b5b50919050565b600081905092915050565b60008190508160005260206000209050919050565b60008154612c0381612ba5565b612c0d8186612bd6565b94506001821660008114612c285760018114612c3d57612c70565b60ff1983168652811515820286019350612c70565b612c4685612be1565b60005b83811015612c6857815481890152600182019150602081019050612c49565b838801955050505b50505092915050565b6000612c84826122ea565b612c8e8185612bd6565b9350612c9e818560208601612306565b80840191505092915050565b6000612cb68285612bf6565b9150612cc28284612c79565b91508190509392505050565b6000604082019050612ce360008301856129dc565b612cf060208301846129dc565b9392505050565b7f4e6f2066756e647320746f207769746864726177000000000000000000000000600082015250565b6000612d2d6014836122f5565b9150612d3882612cf7565b602082019050919050565b60006020820190508181036000830152612d5c81612d20565b9050919050565b7f4461746173657420616c72656164792072656769737465726564000000000000600082015250565b6000612d99601a836122f5565b9150612da482612d63565b602082019050919050565b60006020820190508181036000830152612dc881612d8c565b9050919050565b60006020601f8301049050919050565b600082821b905092915050565b600060088302612e1c7fffffffffffffffffffffffffffffffffffffffffffffffffffffffffffffffff82612ddf565b612e268683612ddf565b95508019841693508086168417925050509392505050565b6000819050919050565b6000612e63612e5e612e5984612162565b612e3e565b612162565b9050919050565b6000819050919050565b612e7d83612e48565b612e91612e8982612e6a565b848454612dec565b825550505050565b600090565b612ea6612e99565b612eb1818484612e74565b505050565b5b81811015612ed557612eca600082612e9e565b600181019050612eb7565b5050565b601f821115612f1a57612eeb81612be1565b612ef484612dcf565b81016020851015612f03578190505b612f17612f0f85612dcf565b830182612eb6565b50505b505050565b600082821c905092915050565b6000612f3d60001984600802612f1f565b1980831691505092915050565b6000612f568383612f2c565b9150826002028217905092915050565b612f6f826122ea565b67ffffffffffffffff811115612f8857612f876123a1565b5b612f928254612ba5565b612f9d828285612ed9565b600060209050601f831160018114612fd05760008415612fbe578287015190505b612fc88582612f4a565b865550613030565b601f198416612fde86612be1565b60005b8281101561300657848901518255600182019150602085019450602081019050612fe1565b86831015613023578489015161301f601f891682612f2c565b8355505b6001600288020188555050505b505050505050565b600060408201905081810360008301526130528185612341565b905061306160208301846121d8565b9392505050565b600060408201905061307d60008301856121d8565b61308a60208301846121d8565b9392505050565b7f4e487b7100000000000000000000000000000000000000000000000000000000600052603260045260246000fd5b7f44617461736574206e6f74207265676973746572656400000000000000000000600082015250565b60006130f66016836122f5565b9150613101826130c0565b602082019050919050565b60006020820190508181036000830152613125816130e9565b9050919050565b7f496e73756666696369656e74207061796d656e74000000000000000000000000600082015250565b60006131626014836122f5565b915061316d8261312c565b602082019050919050565b6000602082019050818103600083015261319181613155565b9050919050565b7f4e487b7100000000000000000000000000000000000000000000000000000000600052601160045260246000fd5b60006131d282612162565b91506131dd83612162565b92508282039050818111156131f5576131f4613198565b5b92915050565b7f4e487b7100000000000000000000000000000000000000000000000000000000600052601260045260246000fd5b600081519050919050565b600082825260208201905092915050565b60006132518261322a565b61325b8185613235565b935061326b818560208601612306565b61327481612330565b840191505092915050565b600060a08201905061329460008301886129dc565b6132a160208301876129dc565b6132ae60408301866121d8565b6132bb60608301856121d8565b81810360808301526132cd8184613246565b90509695505050505050565b6000815190506132e88161222e565b92915050565b600060208284031215613304576133036120fa565b5b6000613312848285016132d9565b91505092915050565b600060a08201905061333060008301886129dc565b61333d60208301876129dc565b818103604083015261334f8186612913565b905081810360608301526133638185612913565b905081810360808301526133778184613246565b90509695505050505050565b600061338e82612162565b915061339983612162565b92508282019050808211156133b1576133b0613198565b5b92915050565b60006080820190506133cc60008301876129dc565b6133d960208301866121d8565b6133e660408301856121d8565b6133f360608301846121d8565b95945050505050565b600060408201905081810360008301526134168185612913565b9050818103602083015261342a8184612913565b9050939250505056fea26469706673582212208d5201db7f307fd9f53774a0a084abcd653f46886c9220aee9318c9792749ad564736f6c634300081c0033",
  "linkReferences": {},
  "deployedLinkReferences": {}
}